{
  "_format": "hh-sol-artifact-1",
  "contractName": "Bank",
  "sourceName": "contracts/Bank.sol",
  "abi": [
    {
      "inputs": [],
      "stateMutability": "nonpayable",
      "type": "constructor"
    },
    {
      "inputs": [],
      "name": "BankOwner",
      "outputs": [
        {
          "internalType": "address",
          "name": "",
          "type": "address"
        }
      ],
      "stateMutability": "view",
      "type": "function"
    },
    {
      "inputs": [],
      "name": "bankName",
      "outputs": [
        {
          "internalType": "string",
          "name": "",
          "type": "string"
        }
      ],
      "stateMutability": "view",
      "type": "function"
    },
    {
      "inputs": [
        {
          "internalType": "address",
          "name": "",
          "type": "address"
        }
      ],
      "name": "customerBalance",
      "outputs": [
        {
          "internalType": "uint256",
          "name": "",
          "type": "uint256"
        }
      ],
      "stateMutability": "view",
      "type": "function"
    },
    {
      "inputs": [],
      "name": "depositMoney",
      "outputs": [],
      "stateMutability": "payable",
      "type": "function"
    },
    {
      "inputs": [],
      "name": "getBankBalance",
      "outputs": [
        {
          "internalType": "uint256",
          "name": "",
          "type": "uint256"
        }
      ],
      "stateMutability": "view",
      "type": "function"
    },
    {
      "inputs": [],
      "name": "getCustomerBalance",
      "outputs": [
        {
          "internalType": "uint256",
          "name": "",
          "type": "uint256"
        }
      ],
      "stateMutability": "view",
      "type": "function"
    },
    {
      "inputs": [
        {
          "internalType": "string",
          "name": "_name",
          "type": "string"
        }
      ],
      "name": "setBankName",
      "outputs": [],
      "stateMutability": "nonpayable",
      "type": "function"
    },
    {
      "inputs": [
        {
          "internalType": "address payable",
          "name": "_to",
          "type": "address"
        },
        {
          "internalType": "uint256",
          "name": "_total",
          "type": "uint256"
        }
      ],
      "name": "withdrawMoney",
      "outputs": [],
      "stateMutability": "payable",
      "type": "function"
    }
  ],
  "bytecode": "0x608060405234801561001057600080fd5b50336000806101000a81548173ffffffffffffffffffffffffffffffffffffffff021916908373ffffffffffffffffffffffffffffffffffffffff160217905550610dba806100606000396000f3fe60806040526004361061007b5760003560e01c80637b83b50b1161004e5780637b83b50b1461011b578063a853409a14610146578063db7f6a3814610171578063f274c8971461019c5761007b565b806316c05aa21461008057806327d358011461008a57806337ebe47b146100b557806370142690146100f2575b600080fd5b6100886101b8565b005b34801561009657600080fd5b5061009f610254565b6040516100ac9190610a1b565b60405180910390f35b3480156100c157600080fd5b506100dc60048036038101906100d7919061076b565b6102e2565b6040516100e99190610abd565b60405180910390f35b3480156100fe57600080fd5b50610119600480360381019061011491906107d0565b6102fa565b005b34801561012757600080fd5b506101306103a2565b60405161013d9190610abd565b60405180910390f35b34801561015257600080fd5b5061015b610439565b6040516101689190610abd565b60405180910390f35b34801561017d57600080fd5b50610186610480565b6040516101939190610a00565b60405180910390f35b6101b660048036038101906101b19190610794565b6104a4565b005b60003414156101fc576040517f08c379a00000000000000000000000000000000000000000000000000000000081526004016101f390610a3d565b60405180910390fd5b34600360003373ffffffffffffffffffffffffffffffffffffffff1673ffffffffffffffffffffffffffffffffffffffff168152602001908152602001600020600082825461024b9190610b55565b92505081905550565b6001805461026190610c6f565b80601f016020809104026020016040519081016040528092919081815260200182805461028d90610c6f565b80156102da5780601f106102af576101008083540402835291602001916102da565b820191906000526020600020905b8154815290600101906020018083116102bd57829003601f168201915b505050505081565b60036020528060005260406000206000915090505481565b60008054906101000a900473ffffffffffffffffffffffffffffffffffffffff1673ffffffffffffffffffffffffffffffffffffffff163373ffffffffffffffffffffffffffffffffffffffff1614610388576040517f08c379a000000000000000000000000000000000000000000000000000000000815260040161037f90610a7d565b60405180910390fd5b806001908051906020019061039e929190610621565b5050565b60008060009054906101000a900473ffffffffffffffffffffffffffffffffffffffff1673ffffffffffffffffffffffffffffffffffffffff163373ffffffffffffffffffffffffffffffffffffffff1614610433576040517f08c379a000000000000000000000000000000000000000000000000000000000815260040161042a90610a7d565b60405180910390fd5b47905090565b6000600360003373ffffffffffffffffffffffffffffffffffffffff1673ffffffffffffffffffffffffffffffffffffffff16815260200190815260200160002054905090565b60008054906101000a900473ffffffffffffffffffffffffffffffffffffffff1681565b80600360003373ffffffffffffffffffffffffffffffffffffffff1673ffffffffffffffffffffffffffffffffffffffff16815260200190815260200160002054811115610527576040517f08c379a000000000000000000000000000000000000000000000000000000000815260040161051e90610a5d565b60405180910390fd5b81600360003373ffffffffffffffffffffffffffffffffffffffff1673ffffffffffffffffffffffffffffffffffffffff16815260200190815260200160002060008282546105769190610bab565b925050819055508273ffffffffffffffffffffffffffffffffffffffff166108fc839081150290604051600060405180830381858888f193505050501580156105c3573d6000803e3d6000fd5b50601e6002546105d39190610b55565b421015610615576040517f08c379a000000000000000000000000000000000000000000000000000000000815260040161060c90610a9d565b60405180910390fd5b42600281905550505050565b82805461062d90610c6f565b90600052602060002090601f01602090048101928261064f5760008555610696565b82601f1061066857805160ff1916838001178555610696565b82800160010185558215610696579182015b8281111561069557825182559160200191906001019061067a565b5b5090506106a391906106a7565b5090565b5b808211156106c05760008160009055506001016106a8565b5090565b60006106d76106d284610b09565b610ad8565b9050828152602081018484840111156106ef57600080fd5b6106fa848285610c2d565b509392505050565b60008135905061071181610d3f565b92915050565b60008135905061072681610d56565b92915050565b600082601f83011261073d57600080fd5b813561074d8482602086016106c4565b91505092915050565b60008135905061076581610d6d565b92915050565b60006020828403121561077d57600080fd5b600061078b84828501610702565b91505092915050565b600080604083850312156107a757600080fd5b60006107b585828601610717565b92505060206107c685828601610756565b9150509250929050565b6000602082840312156107e257600080fd5b600082013567ffffffffffffffff8111156107fc57600080fd5b6108088482850161072c565b91505092915050565b61081a81610bdf565b82525050565b600061082b82610b39565b6108358185610b44565b9350610845818560208601610c3c565b61084e81610d2e565b840191505092915050565b6000610866602983610b44565b91507f596f75206e65656420746f206465706f73697420736f6d6520616d6f756e742060008301527f6f66206d6f6e65792100000000000000000000000000000000000000000000006020830152604082019050919050565b60006108cc602683610b44565b91507f596f75206861766520696e737566666963656e742066756e647320746f20776960008301527f74686472617700000000000000000000000000000000000000000000000000006020830152604082019050919050565b6000610932602783610b44565b91507f596f75206d75737420626520746865206f776e657220746f20646f207468697360008301527f20616374696f6e000000000000000000000000000000000000000000000000006020830152604082019050919050565b6000610998602983610b44565b91507f596f752063616e207769746864726177206f6e6c79206f6e636520706572203360008301527f30207365636f6e647300000000000000000000000000000000000000000000006020830152604082019050919050565b6109fa81610c23565b82525050565b6000602082019050610a156000830184610811565b92915050565b60006020820190508181036000830152610a358184610820565b905092915050565b60006020820190508181036000830152610a5681610859565b9050919050565b60006020820190508181036000830152610a76816108bf565b9050919050565b60006020820190508181036000830152610a9681610925565b9050919050565b60006020820190508181036000830152610ab68161098b565b9050919050565b6000602082019050610ad260008301846109f1565b92915050565b6000604051905081810181811067ffffffffffffffff82111715610aff57610afe610cff565b5b8060405250919050565b600067ffffffffffffffff821115610b2457610b23610cff565b5b601f19601f8301169050602081019050919050565b600081519050919050565b600082825260208201905092915050565b6000610b6082610c23565b9150610b6b83610c23565b9250827fffffffffffffffffffffffffffffffffffffffffffffffffffffffffffffffff03821115610ba057610b9f610ca1565b5b828201905092915050565b6000610bb682610c23565b9150610bc183610c23565b925082821015610bd457610bd3610ca1565b5b828203905092915050565b6000610bea82610c03565b9050919050565b6000610bfc82610c03565b9050919050565b600073ffffffffffffffffffffffffffffffffffffffff82169050919050565b6000819050919050565b82818337600083830152505050565b60005b83811015610c5a578082015181840152602081019050610c3f565b83811115610c69576000848401525b50505050565b60006002820490506001821680610c8757607f821691505b60208210811415610c9b57610c9a610cd0565b5b50919050565b7f4e487b7100000000000000000000000000000000000000000000000000000000600052601160045260246000fd5b7f4e487b7100000000000000000000000000000000000000000000000000000000600052602260045260246000fd5b7f4e487b7100000000000000000000000000000000000000000000000000000000600052604160045260246000fd5b6000601f19601f8301169050919050565b610d4881610bdf565b8114610d5357600080fd5b50565b610d5f81610bf1565b8114610d6a57600080fd5b50565b610d7681610c23565b8114610d8157600080fd5b5056fea2646970667358221220b9375f123f087dda6b4be0ccf1a4e2a2bffcabc82c3d88e420a5dd69a7bf609d64736f6c63430008000033",
  "linkReferences": {},
  "deployedLinkReferences": {}
}